:020000042000DA
:1000000000040120C1010020110200200D02002087
:100010000F020020090200204D0300200000000014
:100020000000000000000000000000001502002099
:100030000B0200200000000013020020ED0200204F
:10004000DB010020DB010020DB010020DB010020C0
:10005000DB010020DB010020DB010020DB010020B0
:10006000DB010020DB010020DB010020DB010020A0
:10007000DB010020DB010020DB010020DB01002090
:10008000DB010020DB010020DB010020DB01002080
:10009000DB010020DB010020DB010020DB01002070
:1000A000DB010020DB010020DB010020DB01002060
:1000B000DB010020DB010020DB010020DB01002050
:1000C000DB010020DB010020DB010020DB01002040
:1000D000DB010020DB010020DB010020DB01002030
:1000E000DB010020DB010020DB010020DB01002020
:1000F000DB010020DB010020DB010020DB01002010
:10010000DB010020DB010020DB010020DB010020FF
:10011000DB010020DB010020DB010020DB010020EF
:10012000DB010020DB010020DB010020DB010020DF
:10013000DB010020DB010020DB010020DB010020CF
:10014000DB010020DB010020DB010020DB010020BF
:10015000DB010020DB010020DB010020DB010020AF
:10016000DB010020DB010020DB010020DB0100209F
:10017000DB010020DB010020DB010020DB0100208F
:10018000DB010020DB010020DB010020DB0100207F
:10019000DB010020DB010020DB010020DB0100206F
:1001A000DB010020DB010020DB010020DFF80CD0A8
:1001B00000F018F8004800476D03002000040120FB
:1001C0000648804706480047FEE7FEE7FEE7FEE7F1
:1001D000FEE7FEE7FEE7FEE7FEE7FEE7F1020020AE
:1001E000AD010020064C074D06E0E06840F0010339
:1001F00094E8070098471034AC42F6D3FFF7DAFFD3
:100200007003002080030020FEE77047FEE7FEE752
:1002100070477047704700001CB5002101910091A4
:100220002E4A106840F4803010604FF4A0431068EC
:1002300000F4003000900198401C0190009810B923
:1002400001989842F3D11068800302D501200090F4
:1002500000E00091009801283FD12048403001681B
:1002600041F0805101601E49086840F44040086038
:100270001A48083003680360036843F400430360CE
:10028000036843F4A0530360041F164B23601368F4
:1002900043F08073136013689B01FCD50A6842F435
:1002A00080320A604A68D203FCD50A6842F4003200
:1002B0000A604A689203FCD50B4A40F2057111604E
:1002C000016821F003010160016841F00201016051
:1002D0000168C1F381010229FAD11CBD0038024036
:1002E00000700040195A4007003C0240704700006F
:1002F00010B51248016841F47001016010480168AE
:1003000041F0010101600E4A0021083211600268CB
:100310000C4B1A400260031D0B4A1A60026822F45B
:100320008022026006480C300160FFF775FF034928
:100330004FF000508039086010BD000088ED00E0EB
:1003400000380240FFFFF6FE10300024FEE702E016
:1003500008C8121F08C1002AFAD170477047002050
:1003600001E001C1121F002AFBD17047FEE7000027
:100370008003002000000120000400005E03002034
:04000005200001AD29
:00000001FF
