:020000040800F2
:1000000060250020C1010008550F0008510F0008AD
:10001000530F000809030008B9220008000000007F
:10002000000000000000000000000000851F000824
:100030008107000800000000D50F00085D200008BF
:10004000DB010008DB010008DB010008DB01000820
:10005000DB010008DB010008DB010008DB01000810
:10006000DB010008DB010008DB010008DB01000800
:10007000DB010008DB010008DB010008DB010008F0
:10008000DB010008DB010008DB010008DB010008E0
:10009000DB010008DB010008DB010008DB010008D0
:1000A000DB010008DB010008DB010008DB010008C0
:1000B000DB010008DB010008DB010008DB010008B0
:1000C000DB010008DB010008DB010008DB010008A0
:1000D000DB010008DB010008DB010008DB01000890
:1000E000DB010008DB010008DB010008DB01000880
:1000F000DB010008DB010008DB010008DB01000870
:10010000DB01000881120008DB010008DB010008A8
:10011000DB010008DB010008DB010008DB0100084F
:10012000DB010008DB010008DB0100086D050008A9
:10013000DB010008DB010008DB010008DB0100082F
:10014000DB010008DB010008DB010008DB0100081F
:10015000DB010008DB010008DB010008DB0100080F
:10016000DB010008DB010008DB010008DB010008FF
:10017000DB010008DB010008DB010008DB010008EF
:10018000DB010008DB010008DB010008DB010008DF
:10019000DB010008DB010008DB010008DB010008CF
:1001A000DB010008DB010008DB010008DFF80CD0F0
:1001B00000F098F800480047E93E0008602500205C
:1001C0000648804706480047FEE7FEE7FEE7FEE7F1
:1001D000FEE7FEE7FEE7FEE7FEE7FEE76120000838
:1001E000AD0100082DE9F05F0546002092469B46D0
:1001F00088460646814640241BE02846414647463D
:10020000224600F05EF853465A46C01A914110D378
:1002100011461846224600F045F82D1A67EB0108F2
:100220004F4622460120002100F03CF817EB000960
:100230004E41201EA4F10104DFDC484631462A4627
:100240004346BDE8F09F40EA01039B0703D009E065
:1002500008C9121F08C0042AFAD203E011F8013BB2
:1002600000F8013B521EF9D27047421C10F8011BE6
:100270000029FBD1801A704730B50B46014600209B
:100280002022012409E021FA02F59D4205D303FA58
:1002900002F5491B04FA02F52844151EA2F10102D9
:1002A000F1DC30BD202A04DB203A00FA02F1002004
:1002B00070479140C2F1200320FA03F319439040A4
:1002C0007047202A04DB203A21FA02F0002170470F
:1002D00021FA02F3D040C2F12002914008431946AE
:1002E00070470000064C074D06E0E06840F001034F
:1002F00094E8070098471034AC42F6D3FFF75AFF52
:10030000E843000808440008FEE770B500254FF4F4
:10031000803400E0641E24B1802000F08BFF0028B0
:10032000F8D02CB140F2FF5000F042FF284670BDDB
:10033000032070BD70B5054600243B49086800E005
:10034000086810F0450FFBD0410705D503240420B1
:1003500000F02EFF204670BDC00705D0012401200B
:1003600000F026FF204670BD00F05EFFA84201D0DD
:10037000102070BD40F2FF5000F01AFF002000F086
:1003800075FF2A49084201D1204670BD002801DAD4
:100390001C2070BD410001D5092070BD810001D530
:1003A0000A2070BDC10001D50B2070BD010101D52F
:1003B0000C2070BD410101D50D2070BDC10101D5DA
:1003C0000E2070BD010201D50F2070BD410201D584
:1003D000102070BD810201D5112070BDC10201D570
:1003E000122070BD010301D5132070BD410301D55A
:1003F000142070BD810301D5152070BDC10301D546
:10040000162070BD010401D5172070BD410401D52F
:10041000182070BD810401D5192070BD000701D5D9
:100420001A2070BD204670BD342C014008E0FFFD4D
:1004300010B500240E4A116800E0116811F0450F54
:10044000FBD0480705D50324042000F0B1FE204668
:1004500010BDC80705D00124012000F0A9FE2046E8
:1004600010BD40F2FF5000F0A3FE204610BD00007A
:10047000342C014010B500240A4A116800E01168CC
:1004800011F0450FFBD0480705D50324042000F0E8
:100490008FFE204610BD40F2FF5000F089FE20463E
:1004A00010BD0000342C014070B506460C460025F6
:1004B0001C4A106800E0106810F0450FFBD041079F
:1004C00005D50324042000F073FE204670BDC0074C
:1004D00005D00124012000F06BFE204670BD00F025
:1004E000A3FEB04201D0102070BD40F2FF5000F0DA
:1004F0005FFE002000F0BAFE10F4604F03D08104CC
:1005000005D5132070BD000C2080284670BD410425
:1005100001D5102070BD000401D50F2070BD284604
:1005200070BD0000342C014010B500204FF4803124
:100530000D4B1A6801E0491E1A6812F0450F01D1EF
:100540000029F8D109B1510705D50324042000F092
:100550002FFE204610BD5106FCD50024402000F09F
:1005600027FE204610BD0000342C014001F0F6BAF1
:10057000074A904201D2074801E005481038064A70
:100580008B0001EA020101D5C160704781607047AC
:1005900010640240006002407D0F7D0F002904D0EE
:1005A000016841F0010101607047016821F001011B
:1005B000016070472DE9F043016821F001010160FD
:1005C0000021016041608160C160016121214161C0
:1005D0003E493E4A10394FF03D08904203D1C1F8E0
:1005E0000880BDE8F083394A4FF4746518329042B0
:1005F00001D18D60F5E7354A4FF4741630329042E0
:1006000001D18E60EDE7314A4FF074674832904275
:1006100001D18F60E5E72D4B2D4A6033984201D11F
:10062000CA60DEE7294C2B4B7834A04201D1CB6065
:10063000D7E7DFF898C0284C0CF1900C604501D149
:10064000CC60CEE7DFF884904FF03D5C09F1A8095B
:10065000484502D1C1F80CC0C3E72049DFF87C90BF
:100660000839484502D1C1F80080BAE7DFF86C804C
:1006700008F11808404501D10D60B2E7174D30353B
:10068000A84201D10E60ACE7144D4835A84201D113
:100690000F60A6E7114D11496035091FA84201D12D
:1006A0000A609EE70D4A7832904201D10B6098E7CC
:1006B0000A4A9032904201D10C6092E7074AA83270
:1006C00090428ED1C1F800C08BE70000106002405C
:1006D0003D000020400F002000003D20106402403B
:1006E000002904D0016841F02001016070470168D1
:1006F00021F02001016070470B0609D522B1436942
:1007000043F08003436103E0436923F080034361C6
:10071000802905D001F01E011AB102680A43026067
:10072000704702688A4302607047000030B5036872
:10073000124A1340CC680A682243D1E905452C438C
:100740002243CC6922430C6A22434C6A22438C6ABE
:1007500022434C6B22438C6B22431A430260426952
:1007600022F00703D1E90B2422431A4342610A69AC
:1007700042604A6882608968C16030BD3F801CF079
:100780007047000010B59AB0012221A1234802F061
:1007900069FD234C2070002826D0014621A001F0DD
:1007A000ABFD00211D4802F0C9F9207000281FD0C0
:1007B00023A001F0A1FD19AB64226946174802F09D
:1007C00011FF2070002818D0014621A001F094FDEF
:1007D000124802F0A4F92070002814D0014623A08A
:1007E00001F08AFD1AB010BD27A001F085FDD8E701
:1007F000002129A001F080FDDDE76A462DA01999AE
:1008000001F07AFDE4E737A001F076FDEAE70000A9
:10081000303A546573742E747874000068100020A8
:10082000180000200ACEC4BCFEB4F2BFAACAA7B00A
:10083000DC2CB4EDCEF3B4FAC2EB282564290A000F
:100840000AC6ABD2C6B9E2B1EACAA7B0DC0A000058
:100850000ACEC4BCFED0B4C8EBCAA7B0DC2CB4ED41
:10086000CEF3B4FAC2EB282564290A000ACEC4BC30
:10087000FEB9D8B1D5CAA7B0DC2CB4EDCEF3B4FA2A
:10088000C2EB282564290A000ACEC4BCFEB4F2BF1C
:10089000AAB3C9B9A60A00000AC6ABD2C6B9E2B16A
:1008A000EAB3C9B9A62CC6ABD2C6CAFD20256420BE
:1008B0000A0000000ACEC4BCFEB6C1C8A1B3C9B9C3
:1008C000A62CB6C1C8A1D7D6BDDACAFD20256420A2
:1008D0000AB6C1C8A1C4DAC8DD20A3BA0A25730AC2
:1008E000000000000ACEC4BCFEB9D8B1D5B3C9B966
:1008F000A60A000070B59AB064223F496846FFF727
:10090000A2FC0B223DA1404802F0ACFC3F4C207001
:10091000002830D001463EA001F0EEFC6846FFF70B
:10092000A4FC024619AB6946374802F063FF207009
:10093000002824D001463DA001F0DEFC324D2846BF
:10094000E96802F0FBF8207000281DD03EA001F0FD
:10095000D3FC41A12C4802F032FD064642A12A48B0
:10096000EA6802F02CFD3044C1B2002911D043A046
:1009700001F0C2FC10E049A001F0BEFCCEE74BA0A4
:10098000199901F0B9FCD9E750A0E96801F0B4FC6D
:10099000DFE755A001F0B0FC00211B4802F0CEF8C3
:1009A0002070C8B128A001F0A7FC19AB6946164811
:1009B000EA6802F017FE207098B101461BA001F012
:1009C0009BFC114802F0ABF8207080B101464BA0AF
:1009D00001F092FC1AB070BD00213CA001F08CFC2B
:1009E000E3E76A464CA0199901F086FCE9E756A0B6
:1009F00001F082FCEEE7000084430008303A5465C1
:100A000073742E74787400006810002018000020A1
:100A10000ACEC4BCFEB4F2BFAACAA7B0DC2CB4EDA7
:100A2000CEF3B4FAC2EB282564290A000ACEC4BC6E
:100A3000FED0B4C8EBCAA7B0DC2CB4EDCEF3B4FA48
:100A4000C2EB282564290A000AC6ABD2C6B9E2B1B6
:100A5000EACAA7B0DC0A00000ACCEDBCD3D0C2C4FD
:100A6000DAC8DD0A00000000B5B1C7B0D7D6B7FBC1
:100A7000CAFD20A3BA25640A000000000ACCEDBC20
:100A8000D3D0C2C4DAC8DDB3C9B9A62CD7D6BDDA73
:100A9000CAFDCEAA20A3BA25640A00000ACEC4BCAF
:100AA000FEB4F2BFAAB3C9B9A60A00000ACEC4BCFC
:100AB000FED0B4C8EBB3C9B9A62CD0B4C8EBD7D616
:100AC000BDDACAFD202564200A0000000AC6ABD2A8
:100AD000C6B9E2B1EAB3C9B9A62CC6ABD2C6CAFD43
:100AE000202564200A0000000ACCEDBCD3D0C2C48B
:100AF000DAC8DDCAA7B0DC0A000000000ACEC4BC18
:100B0000FEB9D8B1D5CAA7B0DC2CB4EDCEF3B4FA97
:100B1000C2EB282564290A000ACEC4BCFEB6C1C8AF
:100B2000A1B3C9B9A62CB6C1C8A1D7D6BDDACAFD32
:100B3000202564200AB6C1C8A1C4DAC8DD20A3BA42
:100B40000A25730A000000000ACEC4BCFEB9D8B161
:100B5000D5B3C9B9A60A000030B585B026A090E883
:100B60000E00C0688DE80E000390022226A12948DD
:100B700002F078FB284C207000282AD0014627A0DC
:100B800001F0BAFB234D2846E96801F0D7FF207039
:100B9000002822D028A001F0AFFB6846FFF765FBD4
:100BA000024604AB69461B4802F024FE2070002870
:100BB00018D0014624A001F09FFB164801F0AFFFBA
:100BC0002070002813D0014626A001F095FB05B047
:100BD00030BD2BA001F090FBD4E72DA0E96801F017
:100BE0008BFBDAE731A0049901F086FBE5E737A03B
:100BF00001F082FBEBE70000313233D2BBB6FEC816
:100C0000FD61626300000000303A546573742E7415
:100C10007874000068100020180000200ACEC4BCC0
:100C2000FEB4F2BFAACAA7B0DC2CB4EDCEF3B4FA7E
:100C3000C2EB282564290A000AC6ABD2C6B9E2B1C4
:100C4000EACAA7B0DC0A00000ACEC4BCFED0B4C811
:100C5000EBCAA7B0DC2CB4EDCEF3B4FAC2EB282576
:100C600064290A000ACEC4BCFEB9D8B1D5CAA7B05F
:100C7000DC2CB4EDCEF3B4FAC2EB282564290A00CB
:100C80000ACEC4BCFEB4F2BFAAB3C9B9A60A00001A
:100C90000AC6ABD2C6B9E2B1EAB3C9B9A62CC6AB93
:100CA000D2C6CAFD202564200A0000000ACEC4BCBA
:100CB000FED0B4C8EBB3C9B9A62CD0B4C8EBD7D614
:100CC000BDDACAFD202564200A0000000ACEC4BC9B
:100CD000FEB9D8B1D5B3C9B9A60A000010B5002233
:100CE000114608A001F0E4FF0749087028B1014649
:100CF000BDE8104005A001F0FFBABDE810400AA011
:100D000001F0FABA303A0000180000200AB8F1CA1F
:100D1000BDBBAFCAA7B0DC2CB4EDCEF3B4FAC2EBC6
:100D2000282564290A0000000AB8F1CABDBBAFB388
:100D3000C9B9A60A000000002DE9FC470E460024B0
:100D4000002700970197574D4FF0080AC5F800A0FB
:100D5000102068604FF04009C5F80890EF604FF42C
:100D60008068C5F81080284600F0D2FA1020FFF7FE
:100D7000E1FA002832D14C4800890004286037206D
:100D80006860C5F80890EF60C5F81080284600F04C
:100D9000BFFA3720FFF7CEFA00281FD1411E05F118
:100DA00014000160C0F804A0302181600221C160FC
:100DB00007610121416100F013FA2F603320686060
:100DC000C5F80890EF60C5F81080284600F0A0FA3A
:100DD0003320FFF7AFFA0546280001D0BDE8FC87B5
:100DE0004FF4001A6F46DFF8C48040F22A6908E029
:100DF000504600F01FFA20B100F084FA47F82400B2
:100E0000641CD8F8000010EA090FF1D0082000F0A7
:100E100011FA20B1082000F0CBF90420DEE702200F
:100E200000F008FA20B1022000F0C2F90220D5E754
:100E3000202000F0FFF920B1202000F0B9F90620B1
:100E4000CCE74FF40074204600F0F4F920B12046BE
:100E500000F0AEF90720C1E740F2FF5000F0A8F91A
:100E600000980099000601F47F4140EA01200099B2
:100E700001F47F0140EA1120009940EA116070609E
:100E800001980199000601F47F4140EA012001998F
:100E900001F47F0140EA1120019940EA11603060BD
:100EA00028469BE7302100201C000020342C014004
:100EB0002DE9F041002201274FF0030C07FA02F55B
:100EC0000B682B40AB422CD1066853000CFA03F49C
:100ED000A64306600E79D0F800809E4046EA0806D8
:100EE00006600E79012E01D0022E12D18668A6432B
:100EF00086604E79D0F808809E4046EA08068660F3
:100F00004668AE43466045688E799640B6B2354332
:100F10004560C568A543C560CC799C40C3681C4347
:100F2000C460521C102AC9D3BDE8F08110B54B072C
:100F3000DB0E9A40C90800EB8100016A0F249C4037
:100F4000A1430162016A1143016210BD41837047F0
:100F5000FEE7FEE77047000030B50F23C278012599
:100F60000178002A1FD0154A126802F4E062C2F527
:100F7000E062C2F30722C2F10404D3404278A240E7
:100F800084781C401443220101F1E02181F80024FF
:100F9000007800F01F018D404009800000F1E02042
:100FA000C0F8005130BD01F01F00854048098000A5
:100FB00000F1E020C0F8805130BD00000CED00E0F1
:100FC0000249084302490860704700000000FA0522
:100FD0000CED00E070470000054A002903D01168BD
:100FE0000143116070471168814311607047000030
:100FF00030380240054A002903D0116801431160CE
:101000007047116881431160704700004438024006
:10101000054A002903D01168014311607047116827
:1010200081431160704700002438024070B5244BA2
:10103000196801F00C01234C00291ED0224E04290E
:101040001DD008291DD00460196801F0F0010909BC
:101050001E4A545C0168E14041601C6804F4E0549D
:10106000A40A145D21FA04F484601B6803F460434D
:101070005B0BD25CD140C16070BD0460E4E70660E8
:10108000E2E70F4A121F1168C1F38055116801F0A1
:101090003F0135B1B6FBF1F11468C4F38814614324
:1010A00005E0B4FBF1F11468C4F3881461431268DD
:1010B000C2F30142521C5200B1FBF2F10160C3E7DE
:1010C000083802400024F40040787D010000002030
:1010D0002DE9FC470646002400940194002000F00E
:1010E000C5F8800102D50E20BDE8FC872E4D69466B
:1010F000288980B2FFF720FE0028F5D137202B4F3A
:101100004FF0060A4FF040094FF48068012E22D0BC
:101110000199C90345D52989090439607860C7F860
:101120000890FC60C7F81080384600F0F1F83720CE
:10113000FFF700F90028D7D13C60C7F804A0C7F832
:101140000890FC60C7F81080384600F0E1F80620EF
:10115000FFF7F0F8C8E70199490320D52989090468
:1011600039607860C7F80890FC60C7F810800F48B5
:1011700000F0CEF83720FFF7DDF80028B4D10220C8
:101180003860C7F804A0C7F80890FC60C7F8108062
:10119000064800F0BDF80620FFF7CCF8A4E72520AC
:1011A000A2E72520A0E700001C000020302100203D
:1011B0000149086070470000382C0140014908606F
:1011C00070470000382C014001490860704700005A
:1011D000A080254201490860704700008C852542A7
:1011E00010B50A4A01681160121D41681160141D92
:1011F000216821F0F701D0E902231A43D0E9043035
:1012000003431A430A43226010BD0000242C01400E
:1012100010B50121CC022046FFF7FAFE2046BDE8BA
:1012200010400021FFF7F4BE01480068C0B27047CB
:10123000102C014001460020024A12680A4200D0E8
:1012400001207047342C014001460020024A1268F8
:101250000A4200D001207047342C01400248006847
:1012600000F0030070470000002C014008B503495E
:10127000084400900098006808BD0000142C01404C
:1012800000F080BC054A002903D0116801431160B9
:101290007047116881431160704700003C2C014089
:1012A00030B5094B196847F6FF629143027D8468A7
:1012B000C568224344682C432243046800692243E2
:1012C00002430A431A6030BD042C014038B54FF484
:1012D000C060FFF775FE31208DF8000000208DF80A
:1012E00001008DF8020001248DF803406846FFF7E5
:1012F00033FE3B208DF800008DF801406846FFF773
:101300002BFE38BD0148006870470000802C01406A
:1013100010B5084A01681160141D21686FF30A01B5
:10132000D0E901231A43D0E9033003431A430A43A7
:10133000226010BD082C0140014908607047000080
:10134000002C014008B5012000909DF8000008BD68
:101350002DE9F041014600241C484068032805D0CF
:1013600038B1012805D0022803D02DE02720BDE8A0
:10137000F081B1F5805F0CD04FF400670026144D6A
:10138000B94212D10120FFF7A3FE0446200002D08B
:101390001AE02720EBE72E752E606E60AE60EF60DE
:1013A0002E610B48FFF77CFF0EE00020FFF790FE58
:1013B0000446200008D12E752E606E60AE60EE608F
:1013C0002E610348FFF76CFF2046D0E71C00002089
:1013D000182100202DE9F04397494F6880F8567096
:1013E0000989A0F85410DFF854C2DCF800100A0E86
:1013F00093090370C2F38303437002F00302827007
:101400000A0CC2700A0A02714171DCF80420110E44
:101410000901C180C2F30741C38843EA1113C380A5
:1014200001F00F010172C2F30721CB094372C1F32E
:1014300080138372C1F34013C372C1F300130373AB
:101440000023437364460126D4F80880002F4FEA36
:101450001864C8F30745C8F3072904D0012F02D048
:10146000022F3AD051E08907090D0161D1B202691A
:1014700042EA81010161016941EA94110161C4F309
:10148000C201017504F00701417569098175C5F351
:101490008201C175A907490F01764946027E42EAD9
:1014A000D11202760269521C047EA41C06FA04F9C9
:1014B000A2FB094703FB09774FEAE97502FB0575B3
:1014C000027A06FA02F70765A4FB072905FB0795D0
:1014D00004FB0354C0E9122417E09106890A016154
:1014E000016941EA04210161016929430161494619
:1014F0000269521C43F10004E40444EA5234D20469
:10150000C0E912244FF4007202651C30C1F380124E
:1015100000F8032C8906490E00F8021C08F0FF01B0
:1015200010F8022C42EAD11200F8022C01F07F01DF
:1015300000F8011CDCF80C20110ECC090470C1F37A
:1015400041144470C1F3820484708907090FC1708B
:10155000C2F30741C47844EA9114C470C1F3401443
:101560000471437101F001018171C2F30721CC09BB
:10157000C471C1F380140472C1F340144472C1F306
:1015800000148472C1F38104C47201F00301017379
:10159000D1B2490841738673284A103211680C0E83
:1015A00004740C0C24024482C1F30724458A2543A9
:1015B00045820906416151680C0E456945EA0444BB
:1015C0004461C1F30744456945EA04244461C1F319
:1015D0000724456925434561017691680C0E4476E0
:1015E0000C0C2406C461C1F30724C56945EA044410
:1015F000C461C9B2C46944EA0121C161D1680A0E5B
:10160000C4691443C461C1F3074290F8204044EA1E
:10161000121480F820401207120D4284C1F30722F1
:10162000448C14434484C9B2490880F8241080F8DB
:1016300025601846BDE8F0831C00002090200020A3
:1016400008B500200090FFF77DFE012801D0FF20A3
:1016500008BD684600F062FB08B1FF2008BD009895
:10166000C0F3432008BD10B5FFF7EAFF042803D0FC
:10167000FF2803D0012010BD002010BD022010BDA6
:1016800038B500F01BFEFFF721FE0024009400F0A7
:1016900051F9FFF7BDFD00F09FF900909DF80000A3
:1016A00010B19DF8000038BD00F02EF800909DF8B4
:1016B000000010B19DF8000038BD124804750460A8
:1016C00044608460C4600461FFF7EAFD0D48583847
:1016D000FFF780FE00909DF8000040B90948002106
:1016E0005838B0F85400000400F002FB00909DF858
:1016F000000020B94FF40060FFF72AFE00909DF82B
:10170000000038BD182100202DE9F84F00240120E9
:101710000090FFF7A3FDE0B1DFF8FC8000263F4D0D
:10172000D8F804004FF0C0094FF4806704282AD08D
:101730002E6002206860C5F80890EE602F61284690
:10174000FFF7E6FDFEF774FE0446200003D0BDE877
:10175000F88F2520FBE70020FFF788FDDFF8BCA00D
:10176000AAF1900ACAF800000420FFF77FFDCAF82A
:1017700004000820FFF77AFDCAF808000C20FFF7E4
:1017800075FDCAF80C00D8F8040028B1012803D070
:10179000062801D0022811D12E6003206860402065
:1017A000A860EE602F611D48FFF7B2FD6946032077
:1017B000FEF77AFE0446200000D0C8E7D8F80400FF
:1017C000042826D0BDF80000C8F8080000042860EE
:1017D00009206860C5F80890EE602F610F48FFF798
:1017E00097FDFEF725FE0446200000D0AFE700205D
:1017F000FFF73CFD094DA03D28600420FFF736FDB2
:1018000068600820FFF732FDA8600C20FFF72EFD6E
:10181000E86020469BE700001C00002030210020EB
:1018200030B58FB004461E4D4FF0FA512846FEF7F2
:101830009FFE00212846FEF7B1FE2846FEF7BAFEBD
:101840004FF0006000901748019002940020039030
:101850000121049105908902069189000791890070
:10186000089109904FF440300A9004200B90032017
:101870000C9048020D9080100E9069462846FEF7A5
:1018800055FF012210212846FEF736FF2021284669
:10189000FEF726FF01212846FEF780FE0FB030BD7F
:1018A00058640240802C014030B58FB004461F4D73
:1018B0004FF0FA512846FEF75BFE00212846FEF75E
:1018C0006DFE2846FEF776FE4FF000600090184847
:1018D0000190029440200390012004900020059084
:1018E00029150691890007918900089109904FF404
:1018F00040300A9004200B9003200C9048020D9079
:1019000080100E9069462846FEF710FF0122102134
:101910002846FEF7F1FE20212846FEF7E1FE0121D0
:101920002846FEF73BFE0FB030BD00005864024071
:10193000802C01407CB501210C20FFF74DFB244D8C
:101940000C2208212846FFF7F1FA0C22092128462B
:10195000FFF7ECFA0C220A212846FFF7E7FA0C22DF
:101960000B212846FFF7E2FA0C2211462846FFF722
:10197000DDFA184E0C2202213046FFF7D7FA4FF459
:101980007060009002218DF805108DF8041000247D
:101990008DF8064001218DF8071069462846FFF7AB
:1019A00087FA0421009169463046FFF781FAA814AE
:1019B00000908DF8074069462846FFF779FA012123
:1019C000C802FFF717FB01218805FFF705FB7CBD67
:1019D00000080240000C02402DE9F84F0027009754
:1019E000BB460024A24600255948762101750760B0
:1019F00047608760C7600761FFF752FC0320FFF76D
:101A00009BFC0120FFF7E0FB514E183637607760F2
:101A1000B760F7604FF48069C6F810903046FFF762
:101A200077FCFEF772FC00909DF8000018B19DF85D
:101A30000000BDE8F88F4FF4D5703060082070606A
:101A40004FF04008C6F80880F760C6F8109040488C
:101A50001830FFF75DFCFEF767FD00909DF8000071
:101A600018B3376037207060C6F80880F760C6F892
:101A7000109037481830FFF74BFC3720FEF75AFC20
:101A80000090376037207060C6F80880F760C6F8AD
:101A900010902F481830FFF73BFC3720FEF74AFC28
:101AA00000909DF8000090B34FE02A48012141606A
:101AB0008D07E6E7376037207060C6F80880F7606A
:101AC000C6F8109022481830FFF722FC3720FEF7A6
:101AD00031FC00909DF8000010B19DF80000A8E7CF
:101AE0001D482843306029207060C6F80880F760E0
:101AF000C6F8109016481830FFF70AFCFEF7BAFC3B
:101B000000909DF8000018B19DF8000091E706E0F4
:101B10000020FFF7ABFB83464FEADB7A641CBAF187
:101B2000000F03D14FF6FF708442C3D34FF6FF700E
:101B3000844204D31B2000909DF8000079E71BF03D
:101B4000804F02D00348022141609DF8000070E7F9
:101B5000182100201C0000200000108007480068A9
:101B600010F0C05F08D006490120486103484FF0DB
:101B7000C2515830FEF7FCBC7047000000640240C0
:101B80001C00002070B54FF480752846FFF75CFB01
:101B9000214C38B1002020702846FFF70FFB0120B0
:101BA000206132E00220FFF74FFB28B10220FFF74F
:101BB00005FB0220207028E00820FFF745FB28B134
:101BC0000820FFF7FBFA042020701EE02020FFF71A
:101BD0003BFB28B12020FFF7F1FA0620207014E02B
:101BE0001020FFF731FB28B11020FFF7E7FA05209E
:101BF00020700AE04FF400752846FFF725FB20B15E
:101C00002846FFF7DBFA0720207000214CF23A301B
:101C1000FFF738FB207870BD1C0000202DE9F05F35
:101C20008346DDE90A6714461D46DFF8B8A04FF089
:101C300000088AF80080CAF810804FF00109CAF83D
:101C40000C902948C0F80080012140F22A30FFF7AB
:101C500019FB07FB06F15846FFF7E2FD0120FFF7ED
:101C6000B9FADAF80400022803D10602640A44EA49
:101C7000C5541E4D2E60102068604FF0400AC5F814
:101C800008A0C5F80C804FF4806BC5F810B028464A
:101C9000FFF73EFB1020FEF74DFB002820D1411E30
:101CA00005F11400016077434760902181600221B3
:101CB000C160C0F81080C0F81490FFF791FA2C6052
:101CC00012206860C5F808A0C5F80C80C5F810B0EF
:101CD0002846FFF71DFBBDE8F05F1220FEF72ABB88
:101CE000BDE8F09F1C0000202C2C0140302100207A
:101CF00010B5094A10600720506040209060002015
:101D0000D0604FF4806010611046FFF701FBBDE822
:101D100010400720FEF70EBB3021002070B50546AD
:101D2000002D16D00F48008901040F4801600D21D5
:101D30004160402181600021C1604FF480610161F8
:101D4000FFF7E6FA0D20FEF7F5FA04461CB120462F
:101D500070BD262070BD0020FFF788FA286020465D
:101D600070BD00001C0000203021002010B5084884
:101D7000002101600C22426040228260C16011019A
:101D80000161FFF7C5FABDE810400C20FEF7D2BA9A
:101D9000302100202DE9F04100256C1E2146154E12
:101DA00000E0491E706928B9306918B9307808B95F
:101DB0000029F6D1002777610F4800E0641E016812
:101DC000890401D5002CF9D1F068012803D1FFF76F
:101DD000CDFF0546F7602C4300D1042540F2FF50AB
:101DE000FFF7E6F9307810B13078BDE8F081284689
:101DF000FBE700001C000020342C01402DE9F041DD
:101E000000256C1E2146154E00E0491E706928B958
:101E1000306918B9307808B90029F6D10027776100
:101E20000F4800E0641E0168C90401D5002CF9D1F7
:101E3000F068012803D1FFF799FF0546F7602C43AE
:101E400000D1042540F2FF50FFF7B2F9307810B10D
:101E50003078BDE8F0812846FBE700001C00002038
:101E6000342C01402DE9F05F8246DDE90A67144613
:101E70001D46DFF804914FF0000889F80080C9F88A
:101E800010800120C9F80C003C48C0F800800121F6
:101E900040F21A30FFF7F6F907FB06F15046FFF75C
:101EA00003FD0120FFF796F9D9F80400022803D1B9
:101EB0000602640A44EAC554314D2E601020686061
:101EC0004FF0400BC5F808B0C5F80C804FF4806A9D
:101ED000C5F810A02846FFF71BFA1020FEF72AFAD3
:101EE000002847D1B9F8080000042860372068604E
:101EF000C5F808B0C5F80C80C5F810A02846FFF753
:101F000007FA3720FEF716FA002833D12F60172082
:101F10006860C5F808B0C5F80C80C5F810A0284660
:101F2000FFF7F6F91720FEF705FA002822D12C60FA
:101F300019206860C5F808B0C5F80C80C5F810A075
:101F40002846FFF7E5F91920FEF7F4F9002811D12A
:101F500005F11402401E1060774357609020906096
:101F6000C2F80C80C2F81080012050611046FFF7C3
:101F700037F94046BDE8F09F1C0000202C2C0140A2
:101F800030210020704700001CB500210191009114
:101F90002E4A106840F4803010604FF4A04310685F
:101FA00000F4003000900198401C0190009810B996
:101FB00001989842F3D11068800302D50120009067
:101FC00000E00091009801283FD12048403001688E
:101FD00041F0805101601E49086840F440400860AB
:101FE0001A48083003680360036843F40043036041
:101FF000036843F4A0530360041F164B2360136867
:1020000043F08073136013689B01FCD50A6842F4A7
:1020100080320A604A68D203FCD50A6842F4003272
:102020000A604A689203FCD50B4A40F205711160C0
:10203000016821F003010160016841F002010160C3
:102040000168C1F381010229FAD11CBD00380240A8
:1020500000700040195A4007003C024070470000E1
:1020600010B51248016841F4700101601048016820
:1020700041F0010101600E4A00210832116002683E
:102080000C4B1A400260031D0B4A1A60026822F4CE
:102090008022026006480C300160FFF775FF03499B
:1020A0004FF000608039086010BD000088ED00E04E
:1020B00000380240FFFFF6FE103000248A05C943B5
:1020C00001807047002904D0818941F40051818149
:1020D0007047818921F400518181704730B587B004
:1020E00001210846FEF778FF01211020FEF782FF4C
:1020F00001218805FEF770FF4FF4E060FEF760FFF6
:1021000025208DF8180001208DF81B0000248DF883
:10211000194003208DF81A0006A8FEF71DFF0220C3
:102120008DF814008DF816408DF817408DF81500C5
:10213000400204901C4D07220A212846FEF7F6FEB5
:1021400004A92846FEF7B4FE691504910722092167
:102150002846FEF7EBFE04A92846FEF7A9FE4FF439
:10216000E1300090ADF80C400C20ADF80A00ADF85D
:102170000840ADF80640ADF804400C4C69462046D6
:1021800000F038F840F2255501222946204600F09B
:1021900016F829462046FFF791FF01212046FFF758
:1021A00091FF07B030BD0000000002400010014068
:1021B0000246002012880A4200D00120704710B564
:1021C00040F66A13C1F3421301F01F040121A1403C
:1021D000012B07D0022B07D014303AB102680A4312
:1021E000026010BD0C30F8E71030F6E702688A4351
:1021F000026010BD7FB504460D46208A20F4405190
:10220000E88808432082A08941F20C618843A988AC
:102210002A8911436A8902431143A181A08A20F4CB
:102220004071A8890843A0826846FEF7FFFE1E4859
:10223000844202D01D48844201D1039800E00298F4
:10224000A189090408D500EBC00101EB0010296841
:102250004900B0FBF1F007E000EBC00101EB00101A
:1022600029688900B0FBF1F06422B0FBF2F10901AA
:102270000B096FF018056B4300EB8300A3891D0465
:102280004FF0320307D503EBC000B0FBF2F000F0D3
:102290000700084306E003EB0010B0FBF2F000F08B
:1022A0000F00084320817FBD001001400014014051
:1022B000C1F3080181807047FEE700007CB5012171
:1022C0000220FEF789FE01208DF8040000218DF820
:1022D000061002218DF807108DF8050044030094C4
:1022E000044D69462846FEF7E3FD21462846FEF7E1
:1022F0002DFE7CBD000402400FB4054B10B503A9B0
:10230000044A029800F018F810BC5DF814FB0000B5
:10231000653D00083400002002E008C8121F08C113
:10232000002AFAD170477047002001E001C1121F56
:10233000002AFBD1704700002DE9FF4F8BB09A4671
:102340000F460546002606E025280BD052460D997B
:1023500090476D1C761C28780028F5D10FB03046C8
:10236000BDE8F08F0024A0460122604900E004434C
:1023700015F8013F203B02FA03F00842F7D1287814
:102380002E2817D115F8010F44F004042A280ED086
:102390006FF02F022878A0F1300109290AD808EB44
:1023A000880102EB410100EB01086D1CF2E757F8D0
:1023B000048B6D1C287869283ED006DC0028CDD01F
:1023C00063280BD0642804D136E0732810D0752818
:1023D0004BD052460D999047761C85E017F8040BB8
:1023E0008DF8000000208DF80100E946012003E08F
:1023F00057F8049B4FF0FF3061074FF0000401D401
:102400000AE0641C44450DDA8442FADB19F8041032
:102410000029F6D106E0641C8442FCDB19F80410A4
:102420000029F8D1264404E019F8010B52460D9911
:102430009047641EF8D257E001CF4FF00A0B0028F6
:1024400002DA40422D2102E0210504D52B218DF82E
:102450002410012103E0E10705D02021F7E70DF169
:10246000200908910CE00021F9E701CF4FF00A0B99
:10247000F9E75946FDF700FF01F1300209F8012D97
:102480000028F6D1ADEB090000F1200B600701D464
:102490004FF00108D84502DDA8EB0B0000E000205A
:1024A0008046002406E009A85246005D0D99904739
:1024B000641C761C08988442F5DB04E03020524608
:1024C0000D999047761CB8F10001A8F10108F5DCE0
:1024D00005E019F8010B52460D999047761CBBF1A7
:1024E0000001ABF1010BF4DC6D1C34E7092801009D
:1024F00010B5044600202071401EE062204601F025
:102500004BFD08B1032010BD94F82E0294F82F1251
:1025100040EA0120A0F52A41553901D0022010BD22
:1025200014F8660FE178627840EA0161A078663CB1
:10253000000440EA022001430B48B0EB012F01D117
:10254000002010BD14F8821FE278637841EA02612E
:10255000A278120442EA03221143B0EB012F01D109
:10256000002010BD012010BD0046415400E0401C79
:1025700002780AB18A42FAD100787047891E42690E
:10258000921E8A4201D800207047826A807801FB3F
:10259000002070472DE9F04106460F46002F08D075
:1025A0003946304601F0F0FB022809D20120BDE88F
:1025B000F081F56815B17069A84207D8012505E0DA
:1025C000411CF4D071698142F1D83D462C46641C0F
:1025D0007069A04204D80224022D01D20020E6E74F
:1025E0002146304601F0D0FB38B1411CDFD0012834
:1025F000DDD0AC42EBD10020D9E76FF0704221462C
:10260000304601F0E3FC28B927B12246394630466E
:1026100001F0DCFC20B101280DD001242046C6E7E2
:10262000F4603069411CF9D0401E3061707940F08F
:1026300001007071F2E74FF0FF34EFE72DE9F05F32
:102640008B46DBF8007000E07F1C39782F29FBD027
:102650005C29F9D0D0F818A00B222021504601F0B7
:1026600093FC00252E46A8464FF00809404608F185
:1026700001083C5C202C0BD92F2C09D05C2C07D0F6
:102680002E2C01D04E4516D3B9F1080F0AD107E020
:1026900007EB0800CBF80000202C2FD804202EE0F8
:1026A0002E2C02D00620BDE8F09F08264FF00B0923
:1026B000A806050EDAE7802C05D345F0030520486F
:1026C000204410F8804C1FA02146FFF74FFF08B1AF
:1026D0000620E8E7A4F14100192802D845F00205D8
:1026E00007E0A4F16100192803D845F00105203C5A
:1026F000E4B23046761C0AF80040B7E7002026B165
:102700009AF80010E52902D004E00620CBE7052165
:102710008AF80010B9F1080F01D1A9060D0E05F0D5
:102720000301012901D140F01000C5F38101012905
:1027300001D140F008008AF80B000020B3E7000048
:10274000D8420008222A2B2C3A3B3C3D3E3F5B5DA1
:102750007C7F000070B505460E460021284600F03B
:10276000E6F888B900242969286801F015FC58B9F1
:1027700069690978E5290BD051B100240121284667
:1027800000F02EF80028EED0042800D1072070BDFC
:10279000641CB442F8D0F1E770B50446002120462D
:1027A00000F0C5F8002818D12169206801F0F4FB79
:1027B00005468DB96069017881B1C17A090704D4F1
:1027C0000B22A16901F0CAFB30B10021204600F0C4
:1027D00007F80546002DE7D0284670BD0425FBE725
:1027E0002DE9F04104460E46E7887F1C3804000CB2
:1027F0000AD0216941B1206842895209B7FBF2F33E
:1028000002FB13721AB166E00420BDE8F081491C96
:102810002161E16871B1428983785209B7FBF2F214
:102820005B1E1A4257D101F0AFFA0546012D06D8BA
:102830000220EAE70089B8424DD80420E5E7681C89
:1028400014D020684169A9423FD88EB1E168FFF7F2
:10285000A1FE054628000DD0012D0DD0681C0DD01D
:10286000206801F0FBFC58B10120CEE70120CCE745
:102870000420CAE70720C8E70220C6E70120C4E712
:10288000206800214289303001F07EFB2946206813
:10289000FFF774FE2168C86200264FF001080CE0C3
:1028A00080F80480206801F0D9FC08B10120ACE771
:1028B0002068C16A491CC162761C20688178B142D7
:1028C000EED82168C96A891BC162E5602946206883
:1028D000FFF754FE2061E780206841894909B7FB72
:1028E000F1F201FB1271302202EB411108446061E8
:1028F00000208AE770B5044601212046FFF72AFF31
:10290000054695B92169206801F046FB054665B981
:1029100020220021606901F037FBD4E905010B2278
:1029200001F029FB216801200871284670BD70B5AF
:1029300004460D46E580A368012B03D02068416959
:10294000994201D8022070BD1BB90178032900D13A
:10295000436A2BB141898078490911FB00F618E0E0
:102960000189A94201D8022070BD406A17E01946CA
:10297000206801F009FA0346581C07D0022B03D344
:1029800020684069984203D8022070BD012070BDC4
:10299000AD1BB542EBD219462068FFF7EFFDE360AF
:1029A00098B121684A895209B5FBF2F210442061BE
:1029B00048894009B5FBF0F200FB1250302202EBCF
:1029C000401008446061002070BD022070BD10B549
:1029D0000124002803D1FEF753FE00B9002420464D
:1029E00010BD000010B5034614460120002B15D180
:1029F000012904D002290AD003290ED10BE008498D
:102A00000023483107C9FDF7EDFB206005E04FF4D6
:102A10000070208001E001202060002010BD000037
:102A2000C02000202DE9F041ADF5007D0E46144692
:102A30001D46012700282CD1B0074FF4007819D08B
:102A400000270FE02246641C012369460020FFF79F
:102A5000E9FF07464FB9424669463046FDF7F3FBAA
:102A600006F500766D1E681CECD138460DF5007D2C
:102A7000BDE8F081CDE90085620200233046FFF712
:102A8000CDF8FFF787F930B10127FEF7ECFD0028FC
:102A9000FBD13846EAE70027F7E701460120002985
:102AA00000D100207047F0B5ADF5017D0E4614460B
:102AB0001D460127002D01D068BB03E004200DF561
:102AC000017DF0BDB0074FF4007715D000200FE076
:102AD0003A46314601A8FDF7B6FB2246641C0123A5
:102AE00001A90020FFF7DFFF0028E8D106F50076F6
:102AF0006D1E691CECD1E2E7CDE90075620200238E
:102B00003046FFF7AFF9FFF779F930B10127FEF74B
:102B1000AAFD0028FBD13846D1E70027F7E710B51A
:102B20000446204600F01CFE002806D1204601F095
:102B3000BFFB002801D10021216010BD2DE9F04725
:102B400004460D46204601F0B3FB80465FEA0800CC
:102B500001D0BDE8F087E0790028FAD1E068A8420A
:102B600003D2A179890700D40546A1680027A76090
:102B70004FF00109002D61D02068867842895643C4
:102B80004FF0020A69B16A1E491EB2FBF6F2B1FBB0
:102B9000F6F39A4205D3701E8143A1606D1A6169F4
:102BA0000BE0216941B90021FFF7F4FC014601293E
:102BB00005D0481C07D02161616159BB3EE084F813
:102BC00007A00220C5E784F807900120C1E7A0799B
:102BD000800706D52068FFF7DDFC014629B9354698
:102BE0001AE0206801F0D0F80146481C09D00129FC
:102BF00003D920684069884207D884F807A00220DA
:102C0000A7E784F807900120A3E76161A06830443A
:102C1000A060AD1BB542DAD8A0682844A060206847
:102C20004289B5FBF2F302FB13523AB1FFF7A6FC5F
:102C3000F0B121684989B5FBF1F10F182068A1684E
:102C40004289B1FBF2F302FB131131B3A269BA421C
:102C500023D0A17904F12405490611D54078012338
:102C60002946FFF720FF38B184F80790012070E76C
:102C700084F807A002206CE7A07920F04000A07142
:102C8000206801233A4640782946FFF7CBFE18B169
:102C900084F8079001205CE7A761D4E9020188422B
:102CA00004D9E060A07940F02000A071404650E7D0
:102CB0002DE9F74F88B090460998012803D91320D1
:102CC0000BB0BDE8F08F08A801F0DEF8002801DAAB
:102CD0000B20F5E7FE4951F8206056B10021317014
:102CE000C0B205900598FFF772FEC10703D003201C
:102CF000E6E70C20E4E7400701D50A20E0E706F10B
:102D00000A0202210598FFF76DFE30B97089B0F50F
:102D1000805F02D8B0F5007F01D20120D0E702AA7F
:102D200001210598FFF75EFE10B90298802801D2B4
:102D30000120C5E7099911B14FF0000A01E04FF0F9
:102D40003F0AA0EB0A010291A8F1010018EA000F66
:102D500001D04FF00008B8F1000F13D170894FF483
:102D6000FA62400AB2FBF0F0B1FBF0F20020D94B5E
:102D700000E0401C33F810509542FAD8D54A16327C
:102D800032F81080B8F5007F02D37089B8FBF0F8F4
:102D9000B8F1000F01D14FF00108B8F1800F01D94F
:102DA0004FF08008B1FBF8F0012740F6F672904230
:102DB00000D302274FF6F672904200D30327032F69
:102DC0001BD0012F24D04200121D7089521E0244D4
:102DD000B2FBF0F90125AA03B2FBF0F001900AEB77
:102DE000050B0BEB0900019A841804EB0800A0EB1B
:102DF0000A00884212D90E2062E77289072303EB8A
:102E000080001044B0FBF2F9202500200190E6E795
:102E100000EB4000401C4208D21CD6E703AA032165
:102E20000598FFF7DFFD20B9039810B1B0F5004F0A
:102E300001D90120039003982118491E401E8143A7
:102E4000081B0390032F0CD081440298411BA1EB77
:102E500009020199511AB1FBF8F10491022F03D034
:102E600007E005448344F0E7049940F6F672914286
:102E700006D3032F06D104994FF6F672914201D280
:102E80000E201DE7032F02D0012F02D006E00C24F4
:102E90000AE0B0F5803F01D2012405E0B0F5803FA3
:102EA00001D2042400E00624099810B1F020069015
:102EB00039E0728906F130000021079001F064F8D2
:102EC00006F5F7700121417081700022C270047113
:102ED000FE214171029943F6C1635144B1FBF3F104
:102EE00003913F2343EA91048471C17103724272DA
:102EF0008272C272029901730A0A42730A0C8273C7
:102F0000090EC173552086F82E02AA2086F82F02DA
:102F10000123002207990598FFF7C5FD08B101209C
:102F2000CEE6F820069006F1300472890021204692
:102F300001F02AF80B2268A1204601F01CF87089E4
:102F4000E072000A207384F80D80A573280AE073EC
:102F500001202074032F0BD040026074000AA0747B
:102F60000298B0F5803F05D2E074000A20750AE0AF
:102F70000020F2E704F8200F010A6170010CA17033
:102F8000000EE070203C069860753F2020760020FF
:102F90006076FF21A176E07684F81CA04FEA1A2023
:102FA00060774FEA1A40A0774FEA1A60E0774D4801
:102FB00003908023212546222921032F22D000209F
:102FC00016346074A074E574227584F800904FEA9A
:102FD00019206070A3732174163C132242A104F1DE
:102FE0002B0000F0C8FF552084F8FE01AA2084F8C9
:102FF000FF010123524621460598FFF754FD48B3CF
:1030000001205DE600202534A077E07784F8205089
:1030100084F8212004F8019C4FEA192222704FEA1B
:10302000194262704FEA1962A2700222E2712072A4
:103030006072A0720122E272207306226273A07392
:10304000E3766177253C13222CA104F1470000F0C0
:1030500092FFC8E7032F06D101230AF10602214699
:103060000598FFF720FD5D464FF0000B72890021A7
:10307000204600F089FF06980390032F12D0012FFD
:103080000ED06FF0FF010143039121700398000AF5
:1030900060700398000CA0700398000EE0703BE095
:1030A0001B49F0E760F0FF00039020700398000ACE
:1030B00060700398000CA0700398000EE070FF2071
:1030C00020716071A071E07120726072A07221E0C5
:1030D0001400002058430008EBFE904D53444F531A
:1030E000352E3000000021464E4F204E414D4520E8
:1030F0002020204641542020202020004E4F204EEA
:10310000414D4520202020464154333220202000CC
:1031100000FFFF000F20E0722A466D1C01232146AC
:103120000598FFF7C0FC08B10120C9E572890021AC
:10313000204600F029FF012003900CE02A466D1C78
:10314000012321460598FFF7AEFC08B10120B7E541
:103150000398401C039003984845EFD30BF1010BF3
:10316000BBF1000F82D0032F01D0DDF804802A4686
:103170006D1C012321460598FFF795FC08B101203D
:103180009EE5B8F10108F2D1032F3AD15220207008
:1031900060706120A0704121E170722284F8E42106
:1031A00084F8E52184F8E61184F8E7010498401ECC
:1031B00084F8E801010A84F8E911010C84F8EA11A5
:1031C000000E84F8EB01022084F8EC01002084F862
:1031D000ED0184F8EE0184F8EF01552084F8FE013A
:1031E000AA2084F8FF0101230AF101022146059873
:1031F000FFF759FC01230AF1070221460598FFF762
:1032000052FC002211460598FFF7ECFB08B10120A3
:1032100056E5002054E5000017B581B01446029829
:103220000090684600F030FE002802DA0B2004B05F
:1032300010BD0B4B53F82010002201B10A70019908
:10324000002900D00A7043F8201001D0012C01D0D1
:103250000020ECE7002202A901A800F0A9FBE6E7A4
:10326000140000202DE9F7478BB00646002E0FD042
:103270004FF00008C6F8008002F01F0727F0010297
:103280000CA904A800F094FB0546280004D094E0A3
:1032900009200EB0BDE8F08701A80A9004A80C9997
:1032A00000F02AFD0546099C0DB904B9062517F062
:1032B0001C0F52D04DB1042D03D104A8FFF71AFB07
:1032C000054647F00807099C08E0E07A10F0110F66
:1032D00001D0072502E0780700D50825E5BB3807AF
:1032E00046D584F80E8084F80F8021202074462172
:1032F000617484F8168084F817802076617684F8EB
:103300000B8084F81C8084F81D8084F81E8084F86B
:103310001F802146049800F0D8FD814600212046F8
:1033200000F03AFF049901200871B9F1000F1FD095
:103330000498D0F82CA04946049800F0FAFE0546FF
:10334000280015D10498A9F10109C0F80C90514644
:10335000049800F021FE05460AE04DB9E07AC10666
:1033600001D5042504E0B90702D5C00700D0072520
:103370003DB9380701D547F020070498C06AF061CD
:103380003462D5B9B77186F807802146049800F0F9
:103390009CFD3061207FE17F627F40EA0160A17F78
:1033A000090441EA02210843F060C6F80880C6F823
:1033B000188004983060C088B080284669E70FB450
:1033C0002DE9F0479AB001904FF00008CDF8088041
:1033D000CDF80C8024A8199014AF239810F8011B85
:1033E000239000296ED0252903D001A800F084FE87
:1033F000F3E700252E4610F8011B2390302902D058
:103400002D2905D012E0012510F8011B23900DE0B5
:10341000022510F8011B239008E006EB860001EB63
:103420004006303E239810F8011B2390A1F1300094
:103430000928F2D96C2901D04C2905D145F00405A1
:10344000239810F8011B239000293BD00A46A2F1D3
:103450006100192801D8203AD2B24F2A46D006DCA2
:10346000422A41D0432A37D0442A06D140E0532A89
:1034700007D0552A3CD0582A3CD001A800F03CFE89
:10348000ABE7199850F8049B1990002400E0641CE5
:1034900019F804000028FAD1A80704D50DE020216E
:1034A00001A800F029FE2046641CB042F7D304E0D6
:1034B00009F1010901A800F01FFE99F80010002988
:1034C000F6D104E075E0202101A800F015FE2046A9
:1034D000641CB04281D2F6E7199810F8041B1990C9
:1034E00001A800F009FE78E7022304E0082302E0C7
:1034F0000A2300E01023680703D5199C01CC199416
:1035000004E0442A05D0199C01CC1994442A04D023
:1035100008E0199C01CC1994F8E7002802DA40422F
:1035200045F008050024B0FBF3F203FB1202D2B20F
:10353000B0FBF3F0092A05D9782917D04FF0070C12
:103540006244D2B23032A446641C07F80C2008B1A1
:10355000102CE8D3280703D52D222046641C3A54AA
:10356000A146E80705D04FF0300A09E04FF0270CDC
:10357000E6E74FF0200A03E0514601A800F0BCFD49
:10358000A80704D4484609F10109B042F4D3641EE7
:1035900001A8395D00F0B0FD002CF8D103E05146E0
:1035A00001A800F0A9FD484609F10109B0429AD2EC
:1035B000F5E7CDF864800298002810DBDDE9010210
:1035C00018AB04A900F016F948B918990298884276
:1035D00005D103981AB0BDE8F0075DF814FB4FF071
:1035E000FF30F7E72DE9F84F04468846164699461E
:1035F0000020C9F80000204600F05AFE002812D131
:10360000E07900280FD1A079C0070BD0D4E90210CF
:10361000401A864200D9064604F124004FF0010A00
:10362000009098E00720BDE8F88F2268A0685189D3
:10363000B0FBF1F301FB1303002B6DD1B0FBF1F1F3
:1036400093785B1E1940CDB275B940B110466169DF
:1036500000F09AFB022804D20220E071E3E720691F
:10366000F8E7411C1CD0606161692068FEF786FFA5
:10367000D0B100EB050B20684189B6FBF1F74FB3E1
:103680008178EA198A4200D94F1B40783B465A4656
:103690004146FFF7C7F950B184F807A00120C2E7FF
:1036A00084F807A00120BEE70220E071BBE7A07903
:1036B00040060BD5A069A0EB0B00B84206D22168EA
:1036C0004A89009900FB028000F055FC206845897A
:1036D0007D4336E0A2695A451CD0A17949060DD533
:1036E000407801230099FFF7DEF918B184F807A0AC
:1036F000012098E7A07920F04000A0712068012304
:103700005A4640780099FFF78DF918B184F807A060
:10371000012088E7C4F818B02068A1684089B1FB8F
:10372000F0F200FB1212851AB54200D93546B1FB02
:10373000F0F200FB1210011924312A46404600F035
:103740001AFCA844A0682844A060D9F800002844C6
:10375000C9F80000761B002E7FF467AF002062E7F7
:1037600070B50446204600F0A3FD00280ED1A179D3
:103770008A060BD548060ED52068012304F12401E2
:103780004078A269FFF78FF908B1012070BDA079D8
:1037900020F04000A071E169206800F0FDFB0028E6
:1037A000F4D1256AE87A40F02000E872207B28777F
:1037B000A089000A6877E068000CA877E068000E2E
:1037C000E8772846216900F0E7FC0020A875E87535
:1037D0002121297646216976A874E874A07920F021
:1037E0002000A0712168012008712068BDE87040A8
:1037F00000F0DABC2DE9F84F044688461646994693
:103800000020C9F80000204600F052FD002806D133
:10381000E079002803D1A079800702D40720BDE811
:10382000F88FA068811900D3002604F124004FF01E
:10383000010A0090ADE02268A0685189B0FBF1F365
:1038400001FB1303002B7DD1B0FBF1F193785B1EDC
:103850001940CDB2F5B968B110466169FEF79AFE1C
:10386000002870D001280DD0411C0ED06061216964
:1038700079B10FE020690028F2D100211046FEF74F
:1038800089FEEDE70220E071C9E784F807A0012076
:10389000C5E72061A07940060FD520680123A26901
:1038A00040780099FFF7FFF818B184F807A00120CD
:1038B000B5E7A07920F04000A07161692068FEF7AB
:1038C0005DFEB0B100EB050B20684189B6FBF1F756
:1038D00037B38178EA198A4200D94F1B40783B46BA
:1038E0005A464146FFF7DFF830B184F807A00120BF
:1038F00095E70220E07192E7A069A0EB0B00B842C7
:103900000AD221684A8900FB0281009800F033FB4B
:10391000A07920F04000A071206845897D432EE009
:10392000A169594510D0D4E9021291420CD24078D5
:1039300001235A460099FFF775F828B184F807A0CB
:1039400001206CE702E027E0C4F818B02068A16805
:103950004089B1FBF0F200FB1212851AB54200D982
:103960003546B1FBF0F200FB1210204424302A4609
:10397000414600F000FBA07940F04000A071A8444F
:10398000A0682844A060D9F800002844C9F80000C5
:10399000761B002E7FF44FAFD4E90201884200D994
:1039A000E060A07940F02000A071002037E700001F
:1039B0002DE9FF478046084616460027C8F80070E4
:1039C00000F062FA0546002D03DA0B2004B0BDE8D2
:1039D000F087C64850F825408CB1C8F800402078E0
:1039E00020B16078FFF759F8C1070AD02770E8B214
:1039F0006070FEF7ECFFC1070AD00320E6E70C2059
:103A0000E4E71EB1400701D50A20DFE70020DDE72B
:103A10001EB1400701D50A20D8E7607804F10A02F8
:103A20000221FEF7DFFF30B96089B0F5007F02D3D5
:103A3000B0F5805F01D90120C8E70025294620465E
:103A4000FEF756FD012826D10021E84604EB0110BF
:103A500000F5F770027952B1027AC37A42EA036242
:103A6000837A407A1B0443EA0020024300E00022EC
:103A700048F82120491C0429E8D3002658F826508C
:103A800025B129462046FEF733FD00E0022010B1A3
:103A9000761C042EF2D3032802D018B10D2095E72E
:103AA000012093E794F83B0094F83C10B4F80AC066
:103AB00040EA0120604501D00D2087E794F84600D8
:103AC00094F8471040EA012058B914F8540FE178EF
:103AD000627840EA0160A1780904543C41EA02217D
:103AE0000843A06194F840A084F803A0BAF1010F44
:103AF00004D0BAF1020F01D00D2067E70AFB00FAEB
:103B000094F83D20A27012B1511E0A4201D00D203E
:103B10005CE794F8411094F8423041EA0323238192
:103B20004FEA5C16B3FBF6F106FB113109B10D202B
:103B30004CE794F8431094F8448041EA082179B99D
:103B400094F8501094F8538094F8519041EA086129
:103B500094F852804FEA084848EA092841EA0801E7
:103B600094F83E8094F83F9048EA0929B9F1000F93
:103B700008D0B3FBF6F609EB0A08B044414503D27E
:103B80000D2023E70D2021E7A1EB0801B1FBF2F1A5
:103B900041B3012640F6F672914200D302264FF659
:103BA000F672914200D30326891C6161E56105EB41
:103BB00009022262A844C4F82880032E14D03BB323
:103BC00052446262022E25D001F0010201EB410154
:103BD00002EB5101491E6144B1FBFCF181421BD94A
:103BE0000D20F3E60D20F1E60BB10D20EEE694F882
:103BF0005C2094F85F3094F85D8042EA036294F8A8
:103C00005E301B0443EA08231A4362628900E1E73D
:103C10000D20DBE64900DDE74FF0FF302061E0607A
:103C200080206071032E57D194F8600094F86110E1
:103C300040EA012001284FD1691C204600F0ACF970
:103C4000F0BB677194F82E0294F82F1240EA01201D
:103C5000A0F52A4155393FD114F8300FE178627848
:103C600040EA0160A178303C090441EA022108439E
:103C70001F49884230D194F8140294F8171294F82E
:103C8000152240EA016094F81612090441EA022163
:103C90000843184988421FD194F8180294F81B125F
:103CA00094F8192240EA016094F81A12090441EAD2
:103CB00002210843206194F81C0294F81F1200E0CE
:103CC0000AE040EA016094F81E1294F81D220904EB
:103CD00041EA02210843E06026700449091F088870
:103CE000401C0880E080002070E6000014000020E6
:103CF000525261417272416173B50446019908786C
:103D00002F2801D05C2801D1491C01910025A56014
:103D100001980078202805D200212046FEF707FEF2
:103D200065617CBD01A92046FEF788FC0028F8D11A
:103D30002046FEF731FDA169C97A28B10428F0D1E7
:103D40004907EED405207CBD4907FCD46169C87AD7
:103D5000C00601D405207CBD206800F0B6F8A06044
:103D6000E0E7000070B50446064DE1B22846FEF7D4
:103D70009FFA80212846FEF71BFA0028F9D020463A
:103D800070BD0000001001402DE9F04104460D46D1
:103D9000022D02D36069A84201D8012609E04FF044
:103DA000FF362078012807D0022835D003284BD0D1
:103DB00001263046BDE8F08105EB55076089216A90
:103DC000B7FBF0F00144204600F0E6F80028F0D1FF
:103DD00060893946B1FBF0F200FB121121447F1CCF
:103DE00091F83080B7FBF0F0216A0144204600F0E2
:103DF000D3F80028DDD16089B7FBF0F100FB11702A
:103E0000204490F8300048EA0020E90701D0060974
:103E1000CFE7C0F30B06CCE76089216A4008B5FB09
:103E2000F0F00144204600F0B7F80028C1D16189C4
:103E30006800B0FBF1F201FB120020443030017841
:103E4000407841EA0026B4E76089216A8008B5FB22
:103E5000F0F00144204600F09FF80028A9D16189C4
:103E6000A800B0FBF1F201FB1200204430300178D1
:103E7000C27841EA026182784078120442EA002066
:103E8000014321F0704694E710B504464FF0FF302F
:103E90002368002B0BD0194600E0491C0A78212A20
:103EA00001D33A2AF9D10A783A2A01D0002010BD6C
:103EB00013F8012B303A0A2AF9D28B42F7D1002AA3
:103EC000F5D11046491C216010BD0246887ECB7E8C
:103ED00040EA03201278032A05D10A7D497D42EA8F
:103EE000012140EA01407047FEF7F8F801220CA1D9
:103EF0000C48FFF791F90C49087060B101460BA01E
:103F0000FEF7FAF9FCF7EAFEFCF7F4FCFCF724FEF6
:103F1000FCF738FCFEE70DA0FEF7EEF9F2E7000033
:103F20000000000038000020180000200A466174DC
:103F30004673B9D2D4D8CAA7B0DC2CB4EDCEF3B452
:103F4000FAC2EB282564290A000000000A466174C1
:103F50004673B9D2D4D8B3C9B9A60A0010B50023A4
:103F6000521E541C05D010F8013B11F8014B1B1BCD
:103F7000F6D0184610BD03E011F8013B00F8013BF4
:103F8000521E531CF8D17047C9B201E000F8011B62
:103F9000521E531CFAD1704770B504460E460025D8
:103FA000E06AB04210D0204600F058F905465DB9ED
:103FB00060780123324604F13001FEF733FD10B181
:103FC0004FF0FF360125E662284670BD2DE9F04727
:103FD00004460D461646022D02D36069A84202D857
:103FE0000220BDE8F087207806F0FF094FF00108B5
:103FF000012805D0022842D003285AD00220F0E739
:1040000005EB55076089216AB7FBF0F001442046B3
:10401000FFF7C2FF0028E4D1384661897F1CB0FB5E
:10402000F1F201FB120020443030E90703D001789F
:1040300069F31F1100E03146017084F80480608943
:10404000216AB7FBF0F001442046FFF7A5FF0028E6
:10405000C7D16189B7FBF1F201FB12712144303104
:10406000EA0702D0C6F3071205E00A78C6F3032375
:1040700002F0F0021A430A7084F80480B1E7608904
:10408000216A4008B5FBF0F001442046FFF784FFA9
:104090000028A6D162896900B1FBF2F302FB13117B
:1040A000214481F83090320A81F8312084F804806C
:1040B00097E76089216A8008B5FBF0F0014420464B
:1040C000FFF76AFF00288CD16289A900B1FBF2F3E7
:1040D00002FB1311214430314FF07043CA7803EAD8
:1040E000026232430A70130A4B70130C8B70120E6B
:1040F000CA7084F8048074E738B504466068002804
:1041000016DB451C204401733D2D0DDB6B462A4612
:1041100004F10C012068FFF76DFB0098A84201D163
:10412000002501E04FF0FF356560A068401CA060ED
:1041300038BD2DE9F04104460F46022F02D36069D5
:10414000B84201D8022624E000261FE03946204666
:10415000FFF71AFE0546E5B1012D09D0681C09D00C
:10416000002239462046FFF731FF06468EB903E0AC
:1041700002260EE001260CE02069411C05D0401CFF
:104180002061607940F0010060712F466069B8429B
:10419000DCD83046BDE8F08181760A0AC2760A0C86
:1041A0000275090E4175704770B50446204600F04F
:1041B00055F8054628004FD12078032845D160796D
:1041C000012842D104F13000628900210646FFF740
:1041D000DBFE552084F82E02AA2084F82F025220FC
:1041E00084F8300084F83100612084F832004121E5
:1041F00084F83310722284F8142284F8152284F88B
:10420000161284F81702206984F81802010A84F84B
:104210001912010C84F81A12000E84F81B02E068CF
:1042200084F81C02010A84F81D12010C84F81E1285
:10423000000E84F81F02E269521CE26260780123DA
:104240003146FEF730FC0020607100226078114694
:10425000FEF7C8FB00B10125284670BD2DE9F041ED
:1042600004460027207900281FD0E66A04F13001B7
:104270006078012332468846FEF715FC08B1012715
:1042800013E000202071206AA169301A88420CD204
:10429000E57808E0A069064460780123324641468B
:1042A000FEF701FC6D1E022DF4D23846BDE8F08108
:1042B00010B500280CD0016851B10A7842B1CA8803
:1042C0008088824204D14878FEF7E7FBC00701D01E
:1042D000092010BD002010BD809A45418E418F807D
:1042E0004545454949498E8F9092924F994F555572
:1042F00059999A9B9C9D9E9F41494F55A5A5A6A75C
:10430000A8A9AAABACADAEAFB0B1B2B3B4B5B6B7B5
:10431000B8B9BABBBCBDBEBFC0C1C2C3C4C5C6C7A5
:10432000C8C9CACBCCCDCECFD0D1D2D3D4D5D6D795
:10433000D8D9DADBDCDDDEDFE0E1E2E3E4E5E6E785
:10434000E8E9EAEBECEDEEEFF0F1F2F3F4F5F6F775
:10435000F8F9FAFBFCFDFEFF0004000200018000FA
:10436000400020001000080004000200000000804F
:10437000004000200010000800400020001000084D
:10438000000400024641544653B6C1D0B4CEC4BC6A
:10439000FEB2E2CAD40000000000000000000000ED
:1043A000000000000000000000000000000000000D
:1043B00000000000000000000000000000000000FD
:1043C00000000000000000000000000000000000ED
:1043D00000000000000000000000000000000000DD
:1043E0000000000000000000084400080000002059
:1043F000380000001823000840440008380000205E
:104400002825000028230008000000000102030402
:104410000102030406070809000000000000000074
:10442000000000000000000000000000000000008C
:10443000000000000000000000000000000000007C
:04000005080001AD41
:00000001FF
